:020000040800F2
:1000000068070020CD01000869050008D904000830
:1000100065050008B5020008FF0D0008000000009B
:1000200000000000000000000000000015070008AC
:10003000B902000800000000FD05000829080008BA
:10004000E7010008E7010008E7010008E7010008F0
:10005000E7010008E7010008E7010008E7010008E0
:10006000E7010008E7010008E7010008E7010008D0
:10007000E7010008E7010008E7010008E7010008C0
:10008000E7010008E7010008E7010008E7010008B0
:10009000E7010008E7010008E7010008E7010008A0
:1000A000E7010008E7010008E7010008E701000890
:1000B0008D08000861090008E7010008E701000851
:1000C000E7010008E7010008E7010008E701000870
:1000D000E7010008DD0B0008E7010008E701000860
:1000E000E7010008E7010008E7010008E701000850
:1000F000E7010008E7010008E7010008E701000840
:10010000E7010008E7010008E7010008E70100082F
:10011000E7010008E7010008E7010008E70100081F
:10012000E7010008E7010008E7010008E70100080F
:1001300000F002F800F03AF80AA090E8000C8244BF
:100140008344AAF10107DA4501D100F02FF8AFF29C
:10015000090EBAE80F0013F0010F18BFFB1A43F0A5
:10016000010318476C0E00008C0E0000103A24BFEB
:1001700078C878C1FAD8520724BF30C830C144BF0C
:1001800004680C607047000000230024002500264E
:10019000103A28BF78C1FBD8520728BF30C148BFEA
:1001A0000B6070471FB51FBD10B510BD00F033F8D0
:1001B0001146FFF7F7FF00F06FFE00F051F803B4AF
:1001C000FFF7F2FF03BC00F01CFE00000948804767
:1001D00009480047FEE7FEE7FEE7FEE7FEE7FEE729
:1001E000FEE7FEE7FEE7FEE704480549054A064B41
:1001F000704700002D080008310100086801002048
:1002000068070020680300206803002070477047DB
:10021000704770477047754600F02CF8AE460500F1
:100220006946534620F00700854618B020B5FFF711
:10023000DBFFBDE820404FF000064FF000074FF015
:1002400000084FF0000B21F00701AC46ACE8C009F4
:10025000ACE8C009ACE8C009ACE8C0098D467047FD
:1002600010B50446AFF300802046BDE81040FFF70C
:10027000A6BF0000004870470401002008B5012116
:10028000082000F0CDF94FF48070ADF80000102088
:100290008DF8030003208DF802006946044800F041
:1002A0000CF84FF48071024800F0E3F808BD00003C
:1002B000000C014000BFFEE770472DE9F041024607
:1002C00000250026002000230024002791F803C009
:1002D0000CF00F0591F803C00CF0100CBCF1000FEE
:1002E00003D091F802C04CEA050591F800C0BCF1BA
:1002F000000F31D0146800202BE04FF0010C0CFAF5
:1003000000F3B1F800C00CEA03069E4220D183003E
:100310004FF00F0C0CFA03F7BC4305FA03FC4CEA50
:10032000040491F803C0BCF1280F06D14FF0010C72
:100330000CFA00FCC2F814C00AE091F803C0BCF14A
:10034000480F05D14FF0010C0CFA00FCC2F810C0A8
:10035000401C0828D1D31460B1F800C0BCF1FF0FD5
:1003600034DD546800202EE000F1080C4FF0010845
:1003700008FA0CF3B1F800C00CEA03069E4221D142
:1003800083004FF00F0C0CFA03F7BC4305FA03FC93
:100390004CEA040491F803C0BCF1280F05D100F128
:1003A000080C08FA0CF8C2F8148091F803C0BCF1EC
:1003B000480F07D100F1080C4FF0010808FA0CF8BB
:1003C000C2F81080401C0828CED35460BDE8F081EC
:1003D000F0B50A46002300240021002500F0004665
:1003E000B6F1004F02D11D4EF16901E01B4E71685C
:1003F000C0F3034583B200F44016B6F5401F08D1A0
:1004000021F07061154E766826F07066134F7E609D
:1004100012E000F48016B6F5801F06D1032606FA16
:1004200005F4A14341F0706106E0460D360103FA80
:1004300006F6B14341F0706122B1460D360103FA70
:1004400006F6314300F00046B6F1004F02D1034EEC
:10045000F16101E0014E7160F0BD0000000001405B
:100460000246002093680B400BB1012000E0002001
:1004700070474161704701617047000070B500240A
:100480000A2521E010211248FFF7EAFF08B944F0DD
:10049000010408210E48FFF7E3FF08B944F0020405
:1004A00004210B48FFF7DCFF08B944F004040121E4
:1004B0000848FFF7D5FF012801D144F008040520C2
:1004C00000F0C4FC681EC5B2002DDBDC204670BD08
:1004D000001801400008014000BFFEE708B50121F7
:1004E000442000F09DF81C20ADF8000048208DF855
:1004F000030069460648FFF7E0FE0120ADF8000062
:1005000028208DF8030069460248FFF7D6FE08BD93
:10051000001801400008014008B50121482000F002
:100520007FF82020ADF8000010208DF80300032094
:100530008DF8020069460948FFF7BFFE20210748F1
:10054000FFF799FF2020ADF8000069460448FFF747
:10055000B4FE20210248FFF78EFF08BD000C0140C9
:100560000018014000BFFEE7704710B54FF4A060CF
:1005700000F03AF810BD000070B5002100230F22F2
:10058000C47804B3154C246804F4E064C4F5E06452
:10059000210AC1F10403CA40447804FA03F18478C3
:1005A0001440214309010E4C0678A155047804F04B
:1005B0001F050124AC4005786D11AD0005F1E02563
:1005C000C5F8004109E0047804F01F050124AC409F
:1005D000044D0678761145F8264070BD0CED00E01C
:1005E00000E400E080E100E002490143024A1160BA
:1005F000704700000000FA050CED00E070470000B5
:1006000029B1064AD2690243044BDA6104E0034A85
:10061000D2698243014BDA6170470000001002404A
:1006200029B1064A92690243044B9A6104E0034AE5
:1006300092698243014B9A617047000000100240AA
:1006400030B500210022002400232D4D6D6805F0F7
:100650000C0121B1042905D0082923D105E0294D39
:10066000056022E0274D05601FE0254D6D6805F40B
:100670007012234D6D6805F48034022505EB92421B
:100680001CB9214D554305600BE01D4D6D6805F407
:1006900000351DB11C4D5543056002E0194D554311
:1006A000056002E0174D056000BF00BF144D6D6886
:1006B00005F0F0010909154D6B5C0568DD404560EA
:1006C0000F4D6D6805F4E061090A104D6B5C4568DB
:1006D000DD4085600A4D6D6805F46051C90A0B4D17
:1006E0006B5C4568DD40C560054D6D6805F44041B3
:1006F000890B074D6B5CC568B5FBF3F5056130BD33
:100700000010024000127A0000093D001C00002089
:100710002C000020704710B500F002F810BD00005A
:100720000CB50020019000903348006840F4803000
:100730003149086000BF3048006800F40030009084
:100740000198401C0190009818B90198B0F5A06F6D
:10075000F1D12948006800F4003010B10120009068
:1007600001E0002000900098012843D12348006850
:1007700040F01000214908600846006820F003009E
:1007800008600846006840F0020008601A484068A7
:10079000194948600846406848600846406840F487
:1007A000806048600846406820F47C104860084635
:1007B000406840F4E81048600846006840F08070E7
:1007C000086000BF0C48006800F000700028F9D0F5
:1007D0000948406820F0030007494860084640681F
:1007E00040F00200486000BF0348406800F00C0081
:1007F0000828F9D10CBD0000001002400020024082
:10080000042808D14FF0E021096941F004014FF0BC
:10081000E022116107E04FF0E021096921F00401B5
:100820004FF0E022116170477047000010B5134887
:10083000006840F00100114908600846406810490E
:1008400008400E494860084600680E4908400B49B8
:1008500008600846006820F4802008600846406868
:1008600020F4FE0048604FF41F008860FFF753FF3C
:100870004FF000600449086010BD00000010024005
:100880000000FFF8FFFFF6FE08ED00E070B5002461
:1008900001260121880700F0D2F800282CD0012180
:1008A000880700F0BDF845B91448006808B9012070
:1008B00000E00020114908601EE0012D0AD10F4818
:1008C0000C30006808B9012000E000200B490C3111
:1008D000086011E0022D0FD116B1601C84B201E056
:1008E000601E84B2B4F5487F00DD002604B90126FD
:1008F0002146034800F01DF970BD0000948121429B
:10090000000400407FB505460C4601210846FFF76C
:1009100077FEADF80850ADF804400020ADF80A00AD
:10092000ADF8060001A94FF0804000F005F9012262
:100930001146900700F094F81C208DF8000000206C
:100940008DF8010003208DF8020001208DF80300CE
:100950006846FFF711FE0121880700F064F87FBDAB
:1009600010B50121084800F06AF858B10121064885
:1009700000F056F80548006808B9012000E00020A2
:100980000249086010BD000000040040948121422B
:1009900030B589B005460C4601210220FFF730FE34
:1009A00001210920FFF73CFE01211A48FFF710FD45
:1009B0002020ADF8200018208DF8230003208DF8AA
:1009C000220008A91448FFF778FCADF81850ADF8DC
:1009D00014400020ADF81A00ADF8160005A90F4824
:1009E00000F0AAF87020ADF804000120ADF8060070
:1009F0000020ADF80C0001A9084800F03BF80821E0
:100A0000064800F089F80121044800F00CF809B00C
:100A100030BD000000081A00000C01400004004036
:100A2000CA430282704721B1028842F0010202806B
:100A300004E002884FF6FE731A400280704730B51A
:100A40000246002000230024158A05EA0103958947
:100A500005EA010413B10CB1012000E0002030BD13
:100A60001AB183890B43838102E083898B4383819D
:100A70007047000070B5002400220023058C4FF65B
:100A8000EF7635400584028C8388048B48F6FF7529
:100A90002C404FF6FF452C400D884FF6FF7606EAB6
:100AA00005252C434FF6DF752A400D8906EA05150A
:100AB0002A434D8806EA05152A43154DA84202D05F
:100AC000144DA8421DD14FF67F752A404D894FF62F
:100AD000FF7606EA05152A434FF6BF752A408D8832
:100AE00006EA05152A434FF6FF352B404FF2FF75F6
:100AF0002B408D8906EA85052B43CD8906EA8505BD
:100B00002B4383800483CD880587028470BD000059
:100B1000002C0140003401400A460021018B4FF2B5
:100B2000FF7319404FF6FF7303EA02231943018351
:100B30007047018770470000002202881D4B9842D1
:100B40000ED01D4B98420BD0B0F1804F08D01B4BFC
:100B5000984205D01A4B984202D01A4B984204D1C1
:100B60004FF68F731A404B881A43174B984207D0A1
:100B7000164B984204D04FF6FF431A40CB881A43D5
:100B800002808B8883850B8803850A4B98420BD0A3
:100B9000094B984208D00E4B984205D00D4B984215
:100BA00002D00D4B984201D10B7A03860123838238
:100BB00070470000002C0140003401400004004058
:100BC00000080040000C00400010004000140040ED
:100BD00000400140004401400048014010B540F28F
:100BE00025511D4800F04AF810B31B4800F002F9E7
:100BF000C4B21A48008800F40040C8B917480088F9
:100C000000F4804060B10A2C03D000201349088012
:100C100020E01248008840F400401049088019E0A4
:100C20000D2C06D10D48008840F480400B49088007
:100C300010E00A480088C0F30D0009490C54074829
:100C40000088401C0549088008460088C72801DD47
:100C50000020088010BD000000380140380000204E
:100C60003C00002021B1828942F40052828104E0DC
:100C700082894DF6FF731A408281704770B5024633
:100C8000002400230025002040F66A16B14200D15E
:100C900000BFC1F3421501F01F03012606FA03F35A
:100CA000012D02D19689334006E0022D02D1168A29
:100CB000334001E0968A33400C12012606FA04F410
:100CC0001688344013B10CB1012000E0002070BD43
:100CD000F0B50346002400260025002040F66A17E0
:100CE000B94200D100BF1846C1F3421401F01F06FB
:100CF000012707FA06F5012C01D10C3004E0022C83
:100D000001D1103000E014301AB107682F4307609A
:100D100002E00768AF430760F0BD00002DE9F0472F
:100D200086B005460E460024A24600BFA146002715
:100D3000B08900B100BF2F462C8A4CF6FF700440EA
:100D4000F08804432C82AC894EF6F3100440B0883E
:100D500031890843718908430443AC81AC8A4FF65A
:100D6000FF400440B0890443AC8201A8FFF768FC4F
:100D70001F48874202D1DDF810A001E0DDF80CA089
:100D8000A88900F4004040B10AEBCA0000EB0A1049
:100D900031684900B0FBF1F807E00AEBCA0000EB4C
:100DA0000A1031688900B0FBF1F86420B8FBF0F05C
:100DB00004012009642101FB1089A88900F4004086
:100DC00040B1322000EBC900B0FBF1F000F00700A9
:100DD000044308E0322000EB09106421B0FBF1F07D
:100DE00000F00F0004432C8106B0BDE8F08700003E
:100DF0000038014001468888C0F30800704700BFF2
:100E0000FEE700BF7047000010B56FF00400FFF769
:100E1000F7FC0A4800680A49B0FBF1F0094908707C
:100E20000846007800EB4001C1EBC0104FF6FF719F
:100E300001EAC0000449088010BD0000080000203D
:100E400000127A0030000020320000200146114AD2
:100E500012884A434FF0E0235A6100229A611A46F1
:100E6000126942F001021A6100BF4FF0E0221069DE
:100E700000F001021AB100F48032002AF5D04FF0E0
:100E8000E022126922F001024FF0E0231A610022F1
:100E90009A61704732000020FFF7B6FFFFF765FB4D
:100EA0004FF4165000F044F8FFF718FBFFF734FB3F
:100EB000FFF7E4F900201B49087041F61F4141F299
:100EC0008730FFF71FFD2CE0FFF7D8FA16490870AE
:100ED0000846007810B308460078012813D002288D
:100EE0001BD1002011490860002140F28330FFF738
:100EF0004FFD41F61F4141F26F70FFF703FD0220E5
:100F00000849087009E001200649087041F61F41B0
:100F100041F28730FFF7F6FC00BF02E00A20FFF73E
:100F200095FFD1E70000002005000020A0812142AC
:100F300010B586B00446012144F20400FFF770FBAF
:100F40004FF40070ADF8140003208DF8160018203F
:100F50008DF8170005A91C48FFF7AFF94FF4806022
:100F6000ADF8140004208DF8170005A91648FFF706
:100F7000A4F925208DF8000003208DF801008DF8DC
:100F8000020001208DF803006846FFF7F5FA01948E
:100F90000020ADF80800ADF80A00ADF80C00ADF87F
:100FA00010000C20ADF80E0001A90848FFF7B6FEAE
:100FB000012240F225510548FFF78AFE012103482E
:100FC000FFF750FE06B010BD000801400038014098
:100FD000F00F0008000000203C0000006C01000839
:100FE0002C1000083C0000202C070000880100089D
:100FF000000000000100000000A24A040000000000
:1010000000000000010203040607080900000000B8
:10101000010203040102030406070809020406088A
:0C102000000000000000000000000000C4
:04000005080001CD21
:00000001FF
